:1000000000800010A5050000D5050000D705000000
:10001000D9050000DB050000DD0500000000000040
:10002000000000000000000000000000DF050000EC
:10003000E105000000000000E3050000E505000008
:10004000E7050000E7050000E7050000E705000000
:10005000E7050000E7050000E7050000E7050000F0
:10006000E7050000E7050000E7050000E7050000E0
:10007000E7050000E7050000E7050000E7050000D0
:10008000E7050000E7050000E7050000E7050000C0
:10009000E7050000E7050000E7050000E7050000B0
:1000A000E7050000E7050000E7050000E7050000A0
:1000B000E7050000E7050000E7050000E705000090
:1000C000E7050000E7050000E705000010B5054C56
:1000D000237833B9044B13B10448AFF300800123F4
:1000E000237010BD7C010010000000005C6C00005B
:1000F00008B5064B1BB106480649AFF30080064819
:10010000036813B1054B03B1984708BD0000000018
:100110005C6C0000800100107C01001000000000F9
:10012000154B002B08BF134B9D46A3F5803A0021C9
:100130008B460F461348144A121A01F026FB0F4B48
:10014000002B00D098470E4B002B00D09847002082
:10015000002104000D000D48002802D00C48AFF328
:10016000008001F0CDFA2000290000F0E5F901F04F
:1001700005F900BF0000080000800010000000002A
:10018000000000007C010010B80300100000000017
:100190000000000008B5074C0748E36862681A6071
:1001A00000F098FF2369626803481A6000F092FF2C
:1001B000F1E700BF98010010CDCC4C3E10B5064CC5
:1001C00000212046182201F0E0FA20460349BDE84C
:1001D000104000F0A5BE00BF9801001032C00920F9
:1001E0000C4A30B4936894681A46B4F1805F0CD21C
:1001F000094A03F1C40553F8044BAB4242F8044FDB
:10020000F9D1044B4FF080529A60103042F8201020
:1002100030BC704700ED00E0FCFFFF0F2B4A2023AD
:1002200070B4C2F8A031D2F8A031980645D4274B5B
:10023000022100250124AA2055220B26C3F804110F
:10024000C3F8A8511946C3F8AC51C3F80C41C3F820
:100250008460C3F88C00C3F88C20C3F88040C3F8D6
:100260008C00C3F88C20D1F88830184A5B01FAD58D
:100270000321AA205523C2F88010C2F88C00114631
:10028000C2F88C30D1F88830104A13F0407FF9D092
:100290000F4900230520C2F80801C2F8C410C2F8B3
:1002A000C831136870BC23F4704323F03A0343F45D
:1002B000405343F03A0313607047D2F8A031590617
:1002C000B5D4D2F8A0315906F7D5B0E700C00F4039
:1002D000DE87280400B599B072B63B49684600F045
:1002E0001FFE06A8394900F01BFE0CA8384900F093
:1002F00017FE12A8374900F013FE32E00699039B5F
:10030000019A01311A6059D00C990A9B079A013160
:100310001A604DD01299109B0D9A01311A6041D08C
:10032000159B139A96201A6000F0E0FE009B0133A3
:1003300032D00699049B019A01311A6026D00C999B
:10034000099B079A01311A601AD012990F9B0D9AD6
:1003500001311A600ED0169B139A96201A6000F095
:10036000C5FE009B0133C9D11B481C49242200F063
:10037000AFFDC3E718481949242200F0A9FDEAE7B8
:1003800015481649242200F0A3FDDEE71248134960
:10039000242200F09DFDD2E70F481049242200F0EE
:1003A00097FDC6E70C480D49242200F091FDB7E700
:1003B00009480A49242200F08BFDABE706480749AB
:1003C000242200F085FD9FE732C0092034C00920B7
:1003D00035C0092037C009206C6400008464000027
:1003E00002480349034A00F095BC00BFAC0300106B
:1003F00002C0092003C00920022808B50BDD084B04
:10040000C21E53F82200002143F8221028B10368CD
:100410005B68984708BD002008BD4FF0FF3008BD5D
:10042000B0010010022870B50C4616460FDC0E4BCA
:100430001B680BB9FFF7D4FFA51936B114F8011BDF
:100440000A4800F0B7FBAC42F8D1304670BD084B0B
:10045000033853F8200018B103681B68984770BD33
:100460004FF0FF3070BD00BFB0020010AC030010B1
:10047000B0010010022810B50C4609DC0D4B1B68BA
:100480008BB10D4800F040FB01232070184610BDD1
:100490000A4B033853F8200040B103689B68984723
:1004A0000346184610BDFFF79BFFEAE74FF0FF3306
:1004B000ECE700BFB0020010AC030010B001001068
:1004C000022808B508DD074B033853F8200028B18F
:1004D0000368DB68984708BD012008BD4FF0FF3076
:1004E00008BD00BFB0010010022808B508DD074BA9
:1004F000033853F8200028B103681B69984708BDEA
:10050000002008BD4FF0FF3008BD00BFB001001053
:10051000022808B504D84FF400534B60002008BDF2
:1005200000F026FF092303604FF0FF3008BD00BF35
:10053000704700BF704700BF08B5FFF7FBFFFFF72C
:10054000F7FFBDE80840FFF725BE00BF074A136864
:100550001844EFF30881884202D2106018467047B1
:10056000034B0C221A604FF0FF307047CC00001094
:10057000B40300100A4C08B523680546986800F0DB
:10058000BFFF2368D86800F0BBFF00F081FD20B9F1
:1005900005B9FEE7FFF79EFEFBE700F07BFDF7E7FE
:1005A000300100100649074A074B9A42BEBF51F876
:1005B000040B42F8040BF8E704488047044800475E
:1005C000686C0000C80000107C0100101D020000D3
:1005D00021010000FEE7FEE7FEE7FEE7FEE7FEE79B
:1005E000FEE7FEE7FEE7FEE708B5154A9368C3F3AA
:1005F0004203012B1ED0022B19D1124B596F01312E
:100600000AD0D3F88010986F086093F8A61019B933
:10061000516821F001015160186F0A4B48B193F8FD
:10062000A6302BB10021084A1368984708BD08BDC1
:1006300008BD08BD034A106F0028F9D01946F2E73B
:1006400000800940B8020010B402001070B50368C1
:10065000294CA34249D041DD284CA3422AD004F5BD
:100660008044A34244D1264C08263ABB01290BD032
:100670004568244AC5EBC50502EBC50494F835501E
:1006800094F83620EA4214D1012202FA01F5D1F1A0
:10069000010138BF002102FA01F15C6824EA050477
:1006A0005C6003685B68194203D1B240164BC3F823
:1006B000802070BD154C0726002AD7D0012505FAE9
:1006C00001F176B2304605FA06F65A680A435A60D6
:1006D0002146FFF785FD0C4B1E6070BDA4F58044DC
:1006E000A34205D10A4C0526BFE70A4C0626BCE703
:1006F00000242646B9E700BF000001400080094001
:100700007D070000B802001000E100E0E9050000EC
:1007100019070000E907000008B5154A9368C3F3FC
:100720004203012B1DD0022B18D1124B5968013105
:1007300009D019699868086093F8361019B951689A
:1007400021F00101516018680A4B48B193F8363026
:100750002BB10021084A1368984708BD08BD08BDA1
:1007600008BD044A10680028F9D01946F2E700BF16
:1007700000C00040B8020010B402001008B5174ACB
:100780009368C3F34203012B21D0022B1CD1144BDD
:10079000D3F8AC1001310BD0D3F8B810D3F8B000B7
:1007A000086093F8DE1019B9516821F00101516019
:1007B000D3F8A8000A4B48B193F8DE302BB10021E2
:1007C000084A1368984708BD08BD08BD08BD044A1B
:1007D000D2F8A8000028F8D01946F1E700C0094077
:1007E000B8020010B402001008B5154A9368C3F3AC
:1007F0004203012B1DD0022B18D1124BD96B0131B2
:1008000009D0996C186C086093F86E1019B951688A
:1008100021F001015160986B0A4B48B193F86E309A
:100820002BB10021084A1368984708BD08BD08BDD0
:1008300008BD044A906B0028F9D01946F2E700BFC2
:1008400000000140B8020010B40200102DE9F04F82
:100850000368884A8DB0934209908B4600F3F0807C
:10086000854A934200F0F78040F3D780834A934251
:1008700000F09F8002F5804293420CD1804AD2F86A
:10088000AC1121F44021C2F8AC11D2F8AC1141F402
:100890008021C2F8AC117B494FEA0B12096808911C
:1008A000089CB1FBF2F102FB114289B20491002ACB
:1008B00000F0B1806100A2000123029400240B919A
:1008C0000A9201930F4603920693CDF81CB05E4640
:1008D0000594DDF81CA001994FF00008D146CDB277
:1008E000DA46C346002F79DB0399DDF804E0B1FB5B
:1008F000F9F464090134C4F34F04DE44002C66D1DA
:100900000124B8F1000F67D104FB0EF0029AC00079
:10091000B2FBF0F00130CAEB500000F025FDB04210
:1009200006DA504564D00646CDF814800494069546
:100930000BF1010B5FFA8BF84545D144D2D8019CED
:10094000D3460F2C4FF000035DD0029A0899019C0A
:100950000A440B99013402920194039A0F440A9CB1
:1009600007992244594403920791002BB1D0069B6A
:10097000059A099C42EA03102368C0B2197B049CC3
:1009800041F08001C4F30722099C1973236804997C
:100990001A7123685FFA81FB83F800B0236883F83B
:1009A000280023681A7B02F07F021A730DB0BDE89D
:1009B000F08F334AD2F8AC1121F44031C2F8AC11B7
:1009C000D2F8AC1141F48031C2F8AC1163E7B8F150
:1009D000000F99D0012C97D8022495E7B7FBF9F4C2
:1009E0002409DDF804E00134C4F34F04DE4485E754
:1009F0000494019CD3460F2C0695CDF814805646DE
:100A00004FF00103A1D10599069A099C41EA021011
:100A1000C0B22368B2E71020B0E7A2F5804293424B
:100A20007FF439AF164AD2F8A81121F0C001C2F8FC
:100A3000A811D2F8A81141F04001C2F8A8112AE784
:100A40009B221148114900F043FA099C0A4A236885
:100A500093427FF409AF0A4AD2F8A81121F44071F9
:100A6000C2F8A811D2F8A81141F48071C2F8A811F7
:100A700011E700BF00C009400000014000800940AC
:100A800000C00F40C80000108C650000A865000081
:100A9000F8B55D1E012D07460C46164604D91548CB
:100AA0001549FB2200F014FA053C032C1CD8042E37
:100AB00014D8013EF6B2032E0DD8104B082253F87D
:100AC00026301B01DBB244EA8504144323433A6811
:100AD000DBB21373F8BD00231A46F4E70848064951
:100AE000FE2200F0F5F9E4E706480349FC2200F095
:100AF000EFF9DCE710660000A86500001065000053
:100B00005C6600003866000000B50268137DDB07F4
:100B1000FCD543680949C3EBC30301EBC303596820
:100B200010780131C0B207D0596904335B680B609B
:100B3000536843F0010353605DF804FBB8020010F2
:100B400038B54368184AC3EBC303DB00D118044629
:100B5000C869013011D018331A445368151D013388
:100B600016D06A696B6812681A4204D12368187D2E
:100B7000C0F3801038BD002038BD23681B7D9B0664
:100B80000CD491F834000F288CBF0020012038BD10
:100B9000064807492C2200F09BF9E2E7002381F880
:100BA0003430012038BD00BFB80200106C64000072
:100BB000E066000038B504460D462046FFF7C0FF4A
:100BC0000028FAD02368EDB21D706268054BC2EBB5
:100BD000C20203EBC20393F83420013283F83420BD
:100BE00038BD00BFB80200102DE9F04F0446454D56
:100BF000006883B0A8420E469046994643D0656887
:100C0000002301932A46DFF808A1EF00C2EBC202DD
:100C1000781B4FF0000E0AEBC0000AEBC20C4FF03D
:100C2000FF33C36143607146724620468CF835E05D
:100C3000FFF70CFD16B903B0BDE8F08F324940460E
:100C400000F0FEF931498346484600F0F9F9B21E3A
:100C5000012A38D9012EEED1B8F1FF3FEBD0294956
:100C6000226807208B45107215D1019B9BB11B7C1C
:100C7000019A254943F040034046137403B0BDE890
:100C8000F04F00F0ABB9037C656803F03F030374D9
:100C900062680190B7E77D1B0AEBC500414604304E
:100CA000002200F05FF962680125C2EBC2020AEB84
:100CB000C20320462A46002183F8355003B0BDE820
:100CC000F04FFFF7C3BCB9F1FF3F09D00D4A904286
:100CD0000CD0781B0AEBC00049461C3000F00EF91E
:100CE000032EA8D1B8F1FF3FB9D1A4E7019B002B97
:100CF000EFD01A7C484642F080021A74034900F093
:100D00006DF9EDE700000140EC640000C8670000E9
:100D1000B80200102DE9F0470F4605460846614924
:100D2000164600F09BF960490446304600F096F9FB
:100D30000146204600F072F9411C044600F0AB80E9
:100D40005A4B2860984200F0838053D9584B984200
:100D500076D003F58043984206D1564BD3F8C42091
:100D600042F00072C3F8C4204FF0010984F80890E3
:100D70002B684FF00008C3F8048028464FF4165142
:100D8000FFF764FD42464B4628460821FFF780FEE8
:100D90003846444900F022F93046434900F01EF934
:100DA0007A1C03D03846414600F024FA731C03D065
:100DB0003046002100F01EFA3C4B9C4250D025D911
:100DC0003B4B9C4264D003F580439C424BD10323B0
:100DD0006B603949C3EBC3034FF0FF34284601EB86
:100DE000C305224623466C60EC610021BDE8F04754
:100DF000FFF7FABEA3F580439842B5D12D4BD3F847
:100E0000C42042F00802C3F8C420ADE7A3F5804334
:100E10009C4228D1284E4FF0FF34002169602246C1
:100E2000234628467460F461FFF7DEFE234B01245D
:100E300029461C6022480822BDE8F04700F09CBC0F
:100E40001C4BD3F8C42042F08072C3F8C4208BE757
:100E5000184BD3F8C42042F01002C3F8C42083E733
:100E600001236B60B5E76B681349C3EBC3034FF015
:100E7000FF3601EBC30732463346284600217E6029
:100E8000FE61FFF7B1FE0F4B9C42CFD0BDE8F0876B
:100E900002236B609DE70C480C495C2200F018F8B7
:100EA0002C6061E75C6700002065000000000140E5
:100EB0000080094000C00F40B8020010B0020010CE
:100EC000AC03001000C000404C670000A8650000A3
:100ED00010B5084B0446186882B00B46C068064936
:100EE0000092224600F0DCFB02B0BDE81040FFF7A4
:100EF000F1B900BF30010010EC67000038B50D46B5
:100F0000044600F011F9013509D02046002100F017
:100F100027F920460321BDE8384000F01DB938BD4F
:100F200038B50D46044600F0FFF801350FD02368B0
:100F300001330DD02369626820461A60012100F058
:100F40000FF920460221BDE8384000F005B938BD50
:100F5000024803492422FFF7BBFFEBE76C64000063
:100F60008464000070B50D461646044600F0DCF8B7
:100F7000013514D02368013312D066B92369626841
:100F80001A602046012100F0EBF820460221BDE85E
:100F9000704000F0E1B8E36862681A60F1E770BD84
:100FA000034804492422FFF793FF002EE6D0F2E71E
:100FB0006C640000846400000FB400B5064A83B07E
:100FC00004AB126853F8041BD0681A46019300F072
:100FD0001BFE012000F0D2F930010010431C10B5B7
:100FE000044618D00B68581C04D10FE051F80C3F90
:100FF0005A1C0BD09C42F9D12046896800F0D2F8E7
:1010000020460221BDE8104000F0F4B80248BDE8D7
:101010001040FFF7D1BF10BD20680000884208B51E
:101020000AD0431C07D0013106D00448FFF7C4FFA3
:101030004FF0FF3008BD084608BD00BF346800000F
:101040000B685A1C04D107E051F80C3F5A1C03D01E
:101050008342F9D1486870471846704708B5431C69
:101060000CD00B685A1C04D109E051F80C3F5A1CF3
:1010700005D09842F9D14868411C00D008BD03480A
:10108000FFF79AFF4FF0FF30F8E700BF4868000015
:1010900000F00CB830B585B018246D4620462946BE
:1010A000ABBE0446204605B030BD00BF024B1868F9
:1010B00000F00100704700BFF0ED00E038B50546D4
:1010C00000F008F9044600F005F9001BA842FAD325
:1010D00038BD00BF08B5044905F046F805F094F99D
:1010E000BDE80840FFF7EABF002474494FF47A7363
:1010F00003FB00F0FFF7E2BF431C10B5044608D025
:101100002046002100F04EF804F01F040120A0400A
:1011100010BD034803491522FFF7DAFEF0E700BFD0
:10112000686800007C68000038B504464B1C0D461A
:1011300021600FD00846FFF7DFFF25F01F0505F1FE
:10114000180105F11C0205F114036060A560E1605F
:101150002261636138BD00BF006800F04BB800BF7A
:1011600038B50368044601330D4610D045B1012D52
:1011700005D1A368626819680A431A6038BD38BD92
:10118000A36861681A6822EA01021A6038BD034840
:1011900003492C22FFF79CFEE8E700BF6C640000C7
:1011A0007C68000038B5431C04460D4617D004F196
:1011B0006040A0F51C2000F00F035B0003229A4062
:1011C0009D4003099B0003F1804303F53033196808
:1011D00021EA02021A601A6815431D6038BD0348EF
:1011E00003491522FFF774FEE1E700BF68680000BD
:1011F000E468000038B5431C04460D462CD004F1C9
:101200006040A0F51C2000F01F04C5F3800202FA24
:1012100004F443099B0003F1804303F53033996ED6
:1012200021EA04019966996E0C439C669AB900F014
:101230000F035B0003229A4005FA03F300098000C4
:1012400000F1804000F53030016C21EA02020264B6
:10125000026C1343036438BD024803492022FFF7A0
:1012600037FECCE768680000E4680000134A38B530
:1012700013680BBB12490124D1F8C4501460114A01
:10128000114845F40005C1F8C4501367036801F123
:10129000437101F5F45103319B08A1FB03039B0C3F
:1012A000013B022151600420D36008495460FEF7DD
:1012B00097FF074B10221A6038BD00BF980300103B
:1012C00000C00F4000400940C8000010211300007A
:1012D00000E100E008B5044B1B680BB9FFF7C6FF3F
:1012E000024B986808BD00BF9803001000400940F9
:1012F000034B98615A6942F001025A61704700BF7E
:1013000000400940024B5A6922F001025A617047BD
:1013100000400940014B01221A607047004009401B
:1013200070B5FFF7F7FF0E4C0E4E236873B11D68C2
:10133000FFF7D0FF281A00280CDC216832688B6880
:101340002360002AF2D048689047EEE7BDE870407D
:10135000FFF7D8BF2368BDE870401868FFF7C8BF23
:101360009C030010A00300100028B8BF4042704743
:10137000014B1868704700BF3001001008B5074BDB
:10138000044613B10021AFF30080054B1868836A4F
:1013900003B198472046FFF7EDF800BF00000000BA
:1013A000AC6900008A892DE9F041054610070C461A
:1013B00057D44B68002B02DC0B6C002B18DDE66A5F
:1013C000B6B102F48052002392B22F682B600AB1AA
:1013D000626D10E0216A28460123B047411C024695
:1013E00009D12B683BB11D2B01D0162B46D12F60A4
:1013F0000020BDE8F081A3895B0705D56368D21A98
:10140000636B0BB1236CD21AE66A2846216A00236B
:10141000B047461CA28905D12B681BB11D2B01D0FA
:10142000162B19D1002363602369D104236004D5EE
:10143000421C01D12B6803B96065616B2F600029E4
:10144000D6D004F14403994202D0284600F0A6F910
:1014500000206063BDE8F08142F04002A281BDE857
:10146000F0810E69002EC3D00B680E60C6EB030836
:1014700093070CBF4B6900238B6012E0A3894FF0E8
:10148000FF3043F04003A381BDE8F081A76A2846FE
:10149000216A32464346B8470028EFDD0644C0EBD8
:1014A0000808B8F1000FF1DCA2E7000038B50B69BD
:1014B00005460C46DBB118B183690BB900F086F81C
:1014C0000C4B9C4201D16C6808E00B4B9C4201D153
:1014D000AC6803E0094B9C4208BFEC68B4F90C30DF
:1014E0002BB128462146BDE83840FFF75BBF0020FE
:1014F00038BD00BF486900006869000088690000C5
:10150000014620B9044B0549186800F0DBB8044BCC
:101510001868FFF7CBBF00BFAC690000AD14000036
:1015200030010010F8B5074600F1480494B1A568F1
:101530006668013E0CD4AB89012B07D9B5F90E3092
:10154000013303D038462946FFF7B0FF6835F0E78E
:101550002468EBE7F8BD0000002310B504460360E3
:101560004360836081814366C2810361436183611B
:1015700019465C30082200F008F9054B24626362CA
:10158000044BA362044BE362044B236310BD00BF12
:10159000ED1800000F190000471900006B1900003A
:1015A00070B54B1E68255D430E4605F1740100F0D1
:1015B00039F9044640B1002180E842000C30A060B7
:1015C00005F1680200F0E1F8204670BD836910B5AE
:1015D000044633BB8364C3640365124B124A1B6821
:1015E0008262984204BF0123836100F01FF86060AB
:1015F000204600F01BF8A060204600F017F80421F8
:10160000E06000226068FFF7A7FFA06809210122BF
:10161000FFF7A2FFE06812210222FFF79DFF0123DE
:10162000A36110BDAC69000025150000F8B51B4B87
:1016300007461E68B36913B93046FFF7C7FF48363F
:10164000B4687368013B04D4B4F90C5075B16834C4
:10165000F8E733682BB938460421FFF7A1FF306063
:1016600008B13668ECE70C233B60F8BD4FF6FF731A
:10167000E3810123A38165662560A560656025611E
:101680006561A56104F15C002946082200F07DF83F
:101690006563A563A564E5642046F8BDAC690000F8
:1016A0000EB403B5014603AB054853F8042B00689C
:1016B000019300F0A5F902B05DF804EB03B07047A8
:1016C000300100102DE9F8438046894600F14804B6
:1016D000002694B1A5686768013F0CD4AB89012B43
:1016E00007D9B5F90E30013303D040462946C84723
:1016F00006436835F0E72468EBE73046BDE8F88339
:1017000070B50E4B0E4D0024ED1AAD101E46AC42C6
:1017100004D056F8242090470134F8E704F09AFEEC
:10172000084D094B0024ED1AAD101E46AC4204D002
:1017300056F8242090470134F8E770BD700100107E
:10174000700100107801001070010010024B01467A
:10175000186800F067B800BF3001001010B5C9B2BA
:1017600002449042034605D01C7801308C42F8D1E7
:10177000184610BD002010BD10B50023934203D0C1
:10178000CC5CC4540133F9E710BD024403469342D4
:1017900002D003F8011BFAE77047000030B50029BA
:1017A0003CD051F8042C0B1F1D49002AB8BF9B18D0
:1017B0000A680C4612B95A600B6030BD93420DD2D4
:1017C00019685818904203D15A5811444268196058
:1017D0005A60236030BD994203D80A4651680029F7
:1017E000F9D1146815199D420AD11B682344D018F9
:1017F0008842136012D10868034413604B680CE000
:1018000002D90C23036030BD18681C188C4203D128
:101810000C684968204418605960536030BD00BFAF
:10182000A803001070B5CD1C25F0030508350C2D5C
:1018300038BF0C25002D06463FDB8D423DD3214BA2
:101840001C6818462146A1B10B685B1B0ED40B2BFC
:1018500003D90B60CC18CD501FE08C4202D16268D6
:1018600002601AE04B6863600C4616E00C4649685B
:10187000E9E7154C23681BB9304600F027F82060D3
:101880002946304600F022F8431C014615D0C41CFE
:1018900024F0030484420AD1256004F10B00231DC7
:1018A00020F00700C31A0BD05A42E25070BD3046F8
:1018B000611A00F00BF80130EED10C2333600020E8
:1018C00070BD00BFA8030010A403001038B5064C7B
:1018D0000023054608462360FEF738FE431C02D16C
:1018E000236803B12B6038BDB403001010B50C465B
:1018F000B1F90E1002F090FB002803DB636D034486
:10190000636510BDA38923F48053A38110BD2DE925
:10191000F0411D468B890746DB050C46164605D56A
:10192000B1F90E100022022301F0CAFEA389384645
:1019300023F48053A381B4F90E1032462B46BDE840
:10194000F04100F0D7BF10B50C46B1F90E1001F010
:10195000B7FE431CA38903D123F48053A38110BD98
:1019600043F48053A381606510BDB1F90E1001F0FE
:1019700041B8034613F8012B002AFBD1181A01388D
:10198000704770B58AB10B4605461C7810F8016B9C
:101990000131B44201D1012A03D128781B78C01A41
:1019A00070BD013A002CEED1F7E7104670BD936888
:1019B00010B5013B002B936005DA9469A34208DB64
:1019C000CBB20A2B05D01368581C10601970C8B22E
:1019D00010BDBDE8104000F039BFF8B505460E4611
:1019E0001446D718BC4208D0284614F8011B3246CA
:1019F000FFF7DDFF431CF5D100E00020F8BD00003B
:101A00002DE9F0439DB00D4617460393064618B1E5
:101A100083690BB9FFF7DAFD734B9D4201D17568FD
:101A200008E0724B9D4201D1B56803E0704B9D42C6
:101A300008BFF568AB8918070AD52B6943B10023A5
:101A4000099320238DF8293030238DF82A3038E08F
:101A50003046294600F060FF0028F0D04FF0FF30FC
:101A6000BEE0039A111D12680391002A70DB0792F1
:101A7000013423782E2B7DD05E4F21783846032207
:101A8000FFF76CFE30B1C71B4020B840049B013407
:101A900003430493217858480622671C8DF82810C8
:101AA000FFF75CFE002800F08980544B002B7CD1AE
:101AB000039B073323F0070308330393099B434435
:101AC00009933B461C4613F8012B1AB9B4EB0709DE
:101AD0000ED002E0252AF5D1F8E7304629463A46ED
:101AE0004B46FFF77AFF013075D0099B4B440993B1
:101AF0002378002B6FD000234FF0FF32049307931D
:101B0000059206938DF853301A9304F101093C4F66
:101B10004C46384621780522FFF720FE09F10109DD
:101B2000049B28B1C71B0120B84003430493EEE790
:101B3000D90644BF20228DF853201A0744BF2B2218
:101B40008DF8532022782A2A8BD0079B214605E066
:101B5000524243F002030792049389E70C4622782D
:101B60000131303A092A03D80A2000FB0323F5E7A4
:101B700007937EE763782A2B09D1039B02341A1D51
:101B80001B680392002BB8BF4FF0FF330BE0611CC2
:101B900000230C4622780131303A092A03D80A2062
:101BA00000FB0323F5E7059366E703AB009330469C
:101BB00004A92A46134B00F0C9F807E003AB0093D1
:101BC000304604A92A460F4B00F040FBB0F1FF3F1E
:101BD00080467FF473AFAB895B063FF53FAF099852
:101BE0001DB0BDE8F08300BF4869000068690000CF
:101BF00088690000B6690000BA6900004D1D000048
:101C0000B0690000DB19000030B51346044A0546F0
:101C10000C46106829462246BDE83040FFF7F0BE6A
:101C2000300100102DE9F047002B88B014461D4606
:101C3000109E1299139F05DA05F100431D461446C4
:101C40002D2300E000230B70149B23F0200ABAF12F
:101C5000460F04D0BAF1450F03D1013601E003234A
:101C600000E002238DE8C80006AB039307AB0493A2
:101C700022462B4600F060FFBAF1470F804602D1A2
:101C8000119BDB0725D5BAF1460F08EB06090FD1EA
:101C900098F80030302B09D1204629460022002335
:101CA00004F098F910B9C6F101063E603B6899440A
:101CB000204629460022002304F08CF908B1CDF813
:101CC0001C90079B4B4504D25A1C079230221A7075
:101CD000F7E7079B4046C8EB0302159B1A6008B064
:101CE000BDE8F08773B50346002903F8022B03DA39
:101CF00049421A462D2401E01A462B240929447032
:101D00001BDD0DF106040A2691FBF6F506FB151105
:101D1000092D01F13001234604F801192946F2DCAE
:101D200005F1300103F8011D0DF107018B420AD2C4
:101D300013F8011B02F8011BF6E730241A46214470
:101D400002F8024B5970101A02B070BD2DE9F04F25
:101D50008FB00C4616461F46DDF86090054601F030
:101D6000ABFCD0F800A05046FFF703FE00230C9315
:101D7000D9F800300990073323F0070303F1080274
:101D8000D3E9000194F81880C9F80020C4E91201D1
:101D900002F054F90128D4E9120117D100220023DE
:101DA00004F022F910B12D2384F84330904B914A6E
:101DB000B8F1470F8CBF91469946032323612368EE
:101DC00023F0040323604FF0000B86E002F036F9A5
:101DD000236848B9884A8949B8F1470F8CBF8946BA
:101DE000914603222261EBE7626828F0200B511C28
:101DF00001D1062204E0BBF1470F02D10AB901224A
:101E00006260606843F480618DE80300D4E91223C6
:101E10000DF12B0002900BA803900CA80590002058
:101E200021600690CDF810802846FFF7FBFEBBF13D
:101E3000470F81460B9909D1C81C02DB63689942A0
:101E400030DDA8F102085FFA88F802E0B8F1650F0A
:101E500012D80139424604F150000B91FFF742FFBE
:101E60000C9A83468318012A236102DC2268D20778
:101E70002DD5013323612AE0B8F1660F14D1002972
:101E8000636807DD216113B92268D0071CD50133CF
:101E90000B4418E013B92268D20701D5023312E0CF
:101EA000012310E04FF067080C9A914205DB23688C
:101EB0002161D80708D54B1C05E00029D4BFC1F12A
:101EC0000203012313442361A1654FF0000B9DF829
:101ED0002B3013B12D2384F8433000972846214638
:101EE0000DAA334600F040F9013002D14FF0FF3027
:101EF00036E123685A0504D4284631464A46236908
:101F000008E1B8F1650F40F2CB80D4E9120100225C
:101F1000002304F05FF800282AD028463146384ACA
:101F20000123B8470130E1D00C9B0B9A9A4207DBA2
:101F30002368D80704D423689B0700F1F880FDE0EC
:101F4000284631465246099BB8470130CED04FF063
:101F500000080C9B013B9845EDDA2846314604F118
:101F60001A020123B8470130C0D008F10108F0E798
:101F70000B9B002B28DC28463146214A0123B84719
:101F80000130B3D00B9B23B90C9B13B92368D9073D
:101F9000D1D5284631465246099BB8470130A5D0D5
:101FA0004FF000080B9B28465B429845314608DA03
:101FB00004F11A020123B847013097D008F1010853
:101FC000F0E74A460C9BA5E0A36D0C9A9A42B4BF79
:101FD00093469B46BBF1000F02DC4FF000081CE06B
:101FE000284631464A465B46B8470130F5D17DE781
:101FF000C1690000C5690000C9690000CD69000021
:10200000D16900002846314604F11A020123B8477D
:1020100001303FF46BAF08F10108A36D2BEAEB72BE
:102020009A1A9045EEDB09EB03080B9A0C9B9A4237
:102030000FDB2368DA070CD40C9B0B9A9944C8EB8E
:1020400009099B1A9945A8BF9946B9F1000F08DC08
:102050000FE0284631465246099BB8470130EBD184
:1020600044E72846314642464B46B84701303FF4E4
:102070003DAF4FF000080AE02846314604F11A024D
:102080000123B84701303FF431AF08F101080B9B41
:102090000C9A29EAE971D31A5B1A9845ECDB4AE7F6
:1020A0000C9A012A01DCDB0739D5284631464A461D
:1020B0000123B84701303FF419AF28463146524654
:1020C000099BB84701303FF411AFD4E91201002257
:1020D000002303F07FFF10B14FF0000811E00C9BCC
:1020E0002846314609F10102013B1CE028463146F1
:1020F00004F11A020123B84701303FF4F7AE08F1AA
:1021000001080C9B013B9845F0DB2846314604F161
:1021100050025B46B84701307FF40DAFE6E6284633
:1021200031464A460123B8470130EED1DEE64FF092
:102130000008E2680D9BD31A984505DBE0680D9B0B
:102140009842B8BF18460BE02846314604F1190200
:102150000123B84701303FF4C9AE08F10108E8E7B0
:102160000FB0BDE8F08F00BF2DE9F84315461F46BC
:102170008A680B6906469A42A8BF13462B6091F8FD
:1021800043200C46DDF820800AB101332B60236820
:10219000990602D52B6802332B60236813F00609D9
:1021A0001DD094F843302268003318BF01239206F3
:1021B0001FD5E118302081F843005A1C94F84510CF
:1021C0002244023382F8431013E03046394604F1CA
:1021D00019020123C047013007D009F10109E26863
:1021E0002B68D31A9945F0DBDBE74FF0FF30BDE8F1
:1021F000F8833046394604F14302C0470130F4D039
:1022000023682A6803F00603E168042B08BFC2EBC9
:1022100001052369A2680CBF25EAE57500259A42ED
:10222000C4BFC3EB0203ED184FF00009A9450ADA59
:102230003046394604F11A020123C0470130D4D098
:1022400009F10109F2E70020BDE8F8832DE9FF4715
:102250000E7E80466E2E0C4691469A460C9D01F1EC
:10226000430000F0A58011D8632E22D009D8002E9B
:1022700000F0AF80582E40F0BF8081F845607B4A67
:102280004FE0642E1ED0692E1CD0B5E0732E00F0F6
:10229000A48009D86F2E2BD0702E40F0AD800B6833
:1022A00043F020030B6038E0752E21D0782E34D017
:1022B000A2E02B6801F142071A1D1B682A6081F811
:1022C00042309DE022682B6812F0800F03D01A1D67
:1022D0002A601D6805E05106F9D51A1D2A60B3F978
:1022E0000050002D39DA2D236D4284F8433034E05C
:1022F00022682B6812F0800F03D01A1D2A601D6817
:1023000004E05206F9D51A1D2A601D88237E574A1B
:102310006F2B14BF0A2308231BE07823544A84F848
:1023200045302368296813F0800F01F104062E6000
:1023300001D00D6802E05F06FBD50D88DE0744BFC3
:1023400043F0200323601DB9236823F0200323609A
:102350001023002184F8431001E0444A0A236668F0
:10236000002EA66003DB216821F00401216005B97D
:102370006EB104F14201B5FBF3F603FB1655555D52
:102380000F4601F801593546002EF4D100E007460A
:10239000082B0AD12368DD0707D5626823699A42B2
:1023A00003DC302307F8013C013FC01B20612CE017
:1023B00009682B6811F0800F626904D0191D29602B
:1023C0001B681A6005E04906F8D5191D29601B68CD
:1023D0001A8000232361074617E02B681A1D2A6024
:1023E0001F683846FFF7C5FA63682061984288BFC6
:1023F00023612369636005E004F1420784F84260C9
:1024000001232361002384F84330CDF800A0404627
:10241000214603AA4B46FFF7A7FE013002D14FF039
:10242000FF301FE0404649463A462369D047013015
:10243000F5D023689B0705D4E068039B9842B8BF9A
:1024400018460FE00025E268039BD31A9D42F3DA99
:102450004046494604F119020123D0470130DED03D
:102460000135F0E704B0BDE8F08700BFD369000094
:10247000E46900002DE9F04F16468A6887B00293A0
:10248000531EB3F5AE7F07460C4606D96FF4AE7304
:102490001A4440F25D138B6000E000222368A046DE
:1024A00043F4F0634FF0000B48F81C3B4546DA4616
:1024B000CDF814B0CDF810B0D946CDF80CB0A16865
:1024C000002900F0E98033681B78492B75D016D8B5
:1024D000392B0DD8312B3ED22D2B45D002D82B2BAA
:1024E00042D0D9E02E2B00F09780302B23D0D3E0C0
:1024F000452B00F09A80462B7CD0412B0CE0652BBD
:1025000000F093800AD8542B7AD002D84E2B33D0C7
:10251000C2E0592B7AD0612B49D0BDE06E2B2BD075
:1025200004D8662B66D0692B47D0B5E0742B67D0F2
:10253000792B6BD0B0E0206810F4807F0BD020F0B6
:102540008000206009F10109002A00F08C8001312F
:10255000013AA16087E00AEB0B01002940F09C8062
:10256000216821F4C07105E02168080640F19480DB
:1025700021F08001216074E0BAF1000F0ED1B9F1B1
:10258000000F0ED1216801F4E060B0F5E06F08D1D2
:1025900021F4F06121604FF0010A62E0BAF1020F0C
:1025A0005DD0BBF1010F20D0BBF1040F1CE0BAF1EC
:1025B000010F71D14FF0020A53E0BBF1000F0ED1B1
:1025C000B9F1000F6BD1216801F4E060B0F5E06F64
:1025D00069D121F4F06121604FF0010B41E0BBF1C2
:1025E000030F02D0BBF1050F56D10BF1010B5FFABF
:1025F0008BFB36E0BBF1020F4ED14FF0030B30E006
:10260000BBF1060F48D14FF0070B2AE0BBF1070FD3
:1026100042D14FF0080B24E0216888053CD521F415
:1026200020712160CDF80C901BE0216801F4A060BE
:10263000B0F5806F04D048052ED5B9F1000F32D027
:10264000880504D403980595C0EB0900049021F493
:10265000F06141F4C07121604FF0000901E04FF0DA
:10266000030A2B700135A368013BA3602369013382
:1026700023617368013B002B736003DD3368013312
:1026800033601CE70192D4F88031384631469847D0
:10269000019A00283FF413AFB9F1000F03D023686B
:1026A00023F4807323600AF1FF3ABAF1010F10D8C6
:1026B00045452A460BD9D4F87C3112F8011C38461E
:1026C000324698472369013D013B2361F0E701262B
:1026D000B5E00BF1FF33062B2CD8BBF1020F1AD952
:1026E000ABF1030B5FFA8BFBAA46CBEB050CE24583
:1026F0000ED0D4F87C311AF8011D3846CDF804C04C
:10270000324698472369DDF804C0013B2361EEE7B8
:10271000CBEB05050EE045452A46D8D9D4F87C31E7
:1027200012F8011C3846324698472369013D013BA7
:102730002361F0E72368DA052ED55B050ED5454504
:102740002A46C4D9D4F87C3112F8011C38463246E6
:1027500098472369013D013B2361F0E715F8011C0F
:102760002369652903F1FF3305F1FF3A23610DD099
:1027700045290BD0D4F87C31384632469847236936
:1027800015F8021C013BA5F1020A2361D4F87C3143
:102790003846324698475546266816F010064DD101
:1027A0002E70236803F4C063B3F5806F05D10399DD
:1027B000C1EB09035A4263B915E0049D9DB1059D23
:1027C0003246691C38460A2302F0D2FA049D421BA5
:1027D000059D04F26F139D4228BF04F5B775284686
:1027E000194901F051FC41460022384601F0A4FC91
:1027F0002268029D12F0020F804689462B6802D0A3
:102800001A1D2A6006E0029D12F0040F03F1040273
:102810002A6003D01B68C3E900890BE01D6801F042
:102820000DFC10B901F02CFC03E04046494603F0D2
:102830004BFC2860E3680133E36000E0002630468B
:1028400007B0BDE8F08F00BFF569000070B50E4617
:102850001446054618B183690BB9FEF7B7FE224B43
:102860009C4201D16C6808E0204B9C4201D1AC68CD
:1028700003E01F4B9C4208BFEC68A369A360A389D7
:102880001A0709D523693BB123692068F6B2C01A3B
:10289000636998420FDB08E02846214600F03CF8C7
:1028A0000028F1D04FF0FF3070BD28462146FEF7DA
:1028B000FDFD0028F6D1A3680130013BA360236829
:1028C0005A1C22601E706369984204D0A389DB07FA
:1028D00007D50A2E05D128462146FEF7E7FD002838
:1028E000E0D1304670BD00BF486900006869000053
:1028F0008869000038B5074C05460020206008466E
:1029000011461A46FDF78EFD431C02D1236803B120
:102910002B6038BDB4030010324B70B51D680646FD
:102920000C4625B1AB6913B92846FEF74FFE2E4B76
:102930009C4201D16C6808E02C4B9C4201D1AC68F0
:1029400003E02B4B9C4208BFEC68A28993B21907A5
:1029500020D4DD0605D4092342F040023360A28171
:102960003BE0580712D5616B41B104F14403994231
:1029700002D03046FEF712FF00236363A38923F0E1
:102980002403A3810023636023692360A38943F0A8
:102990000803A38123694BB9A38903F42073B3F51A
:1029A000007F03D03046214600F09CFEA38913F03F
:1029B000010205D00022A26062695242A26103E0D6
:1029C000990758BF6269A26022694AB903F0800082
:1029D00080B230B143F04003A3814FF0FF3070BDAF
:1029E000002070BD300100104869000068690000D7
:1029F0008869000038B5064C002305460846236068
:102A0000FDF7FAFC431C02D1236803B12B6038BDEB
:102A1000B40300102DE9F74F03690C698046A34207
:102A2000C0F28380013CA20001F1140700F11405FB
:102A30009146009257F824602A44019255F82420C8
:102A40000136B2FBF6F6B944002E3BD04FF0000E33
:102A50003A462846F34652F804CB03681FFA8CFA2C
:102A60004FEA1C4C0AFB06EA0CFB06FC0CEB1A4C6A
:102A70001FFA8AFACAEB0B0B4FEA1C4E1FFA83FAB5
:102A80001FFA8CFCDA44CCEB134C0CEB2A4C1FFAEB
:102A90008AFA4AEA0C4A4A454FEA2C4B40F804AB02
:102AA000D9D9009AAB586BB9019A131FAB421A4699
:102AB00002D8C8F8104005E01268043B002AF8D19B
:102AC000013CF3E7404601F0CCF800282BDB01364F
:102AD0002B46002057F804CB1A681FFA8CF1411AD4
:102AE0001FFA82FA4FEA1C4C5144CCEB124202EB23
:102AF000214289B210144F4541EA024243F8042BA7
:102B0000E8D955F8242005EB840362B9043BAB42B5
:102B10001A4602D8C8F8104005E01268043B002AA3
:102B2000F8D1013CF3E7304600E0002003B0BDE8F7
:102B3000F08F0000000000002DE9F04F456A9BB0C7
:102B40008246279CCDE9042345B91020FEF7FEFDFF
:102B5000CAF82400456085600560C560DAF8243055
:102B6000196861B15B6801224B6002FA03F35046B9
:102B70008B6000F053FEDAF8243000221A600598CA
:102B8000002805DA012320F000412360059101E0CF
:102B900000232360059F9C4A27F000431B0D1B0563
:102BA00093421DD1269A42F20F731360049B43B9DE
:102BB000964B974AC7F3130000280CBF10461846DF
:102BC00000E09248289F002F00F07185C37813B170
:102BD00000F1080300E0C31C289F3B6000F067BDC4
:102BE000DDE90445002220462946002303F0F2F9DE
:102BF000804658B1269F01233B60289F002F00F09C
:102C0000538584483860013800F051BD19AB0093FA
:102C100018AB0193504622462B4601F014F9C7F336
:102C20000A5683465EB1C5F3130343F07F51204635
:102C300041F44011A6F2FF36CDF854801CE0199BF8
:102C4000189E1E446FF482639E4209DB04991F3371
:102C500006F212409B1B21FA00F09F40384304E02B
:102C60006D48049A801B02FA00F002F0D5FE01279D
:102C7000A1F1F871013E15970022684B02F08EFD1C
:102C80005BA3D3E9002302F03DFF5BA3D3E900235C
:102C900002F086FD044630460D4602F0CDFE58A3F4
:102CA000D3E9002302F02EFF02460B4620462946B8
:102CB00002F076FD04460D4603F0BEF92946814632
:102CC00000222046002303F08FF958B1484602F055
:102CD000B3FE02460B462046294603F07BF908B9AD
:102CE00009F1FF39B9F1160F0DD84D4B03EBC903AC
:102CF000D3E90001DDE9042303F094F930B109F1CF
:102D0000FF39002700E00127149700E01490189B7A
:102D10009E1B013E099604D5774208970027099724
:102D200001E000270897B9F1000F07DB099FCDF8F4
:102D300044904F44099700270E9708E0089FC9EB7D
:102D400007070897C9F100070E9700271197249FDE
:102D5000092F29D8052FC4BF043F2497249FC8BF3B
:102D60000025A7F10203D8BF0125032B21D8DFE8F6
:102D700003F0060F0204012702E0012709E0002703
:102D80000F97259F002F1EDD0B9707973B461FE0EF
:102D900000270F97259F4F440B9701373B46079716
:102DA000012BB8BF012313E00125002724970F95BD
:102DB00001E001270F974FF0FF370B970797002788
:102DC0001223259704E001270B9707973B46259789
:102DD000DAF8244000226260042101F114029A42D0
:102DE00020D86268490001326260F6E7AFF30080E4
:102DF00061436F63A787D23FB3C8608B288AC63F01
:102E0000FB799F501344D33F0000F07F046B000018
:102E1000FB6A0000D2690000EEFBFFFF0000F83FF4
:102E2000106B00005046616800F0C3FCDAF82430F3
:102E30002060079F1B680E2F0A9300F26B81002D04
:102E400000F06881B9F1000FDDE90401CDE912015C
:102E500031DD814A09F00F0302EBC3034FEA291465
:102E6000D3E90001CDE90C01E0060CD5DDE9120142
:102E70007A4B04F00F04D3E9082302F06DFF032717
:102E8000CDE9040100E00227744D6CB1E10708D5DB
:102E9000DDE90C01D5E9002302F034FECDE90C0197
:102EA000013764100835F0E7DDE90401DDE90C23A2
:102EB00002F052FF1BE0C9F10004DCB1664B04F0E4
:102EC0000F0203EBC203DDE91201D3E9002302F094
:102ED00019FE624D241102274CB1E20704D5D5E951
:102EE0000023013702F00EFE64100835F4E7CDE947
:102EF000040100E002271499E9B1DDE9044500224C
:102F000020462946564B03F06FF8C8B1079AE2B144
:102F10000B9B002B40F3FA8009F1FF3010902946FB
:102F2000204600224F4B02F0EDFDCDE904010B9944
:102F300001370C910DE0079ACDF840900C9208E013
:102F4000079BCDF840900C9303E00798CDF8409094
:102F50000C90384602F070FDDDE9042302F0D2FD4A
:102F60000022414B02F01CFC0C9F0446A1F150755D
:102F7000CFB900223D4BDDE9040102F00FFC2246EF
:102F80002B4606460F4603F04DF8002840F05382CA
:102F9000224605F100433046394603F025F8002863
:102FA00040F03F82B2E00C9F2B4B7A1E0F9F03EB49
:102FB000C203002F5ED0D3E9002300202C4902F089
:102FC000CBFE22462B4602F0E9FBDDE90467DDF883
:102FD000288004460D463946304603F02DF802900D
:102FE00002F02AFD02460B463046394602F0D6FB77
:102FF000DDF808C022460CF1300308F8013B2B46EF
:1030000006460F4602F0F0FF002840F03B833246B0
:103010003B460020124902F0C1FB22462B4602F03B
:10302000E3FF002840F0D5800A980C99C0EB080314
:103030008B426BDA2046294600220A4B02F062FDE1
:10304000002204460D4630463946064B02F05AFD32
:1030500006460F46BFE700BF106B0000D86B0000AC
:103060000000F03F0000244000001C40000014401D
:103070000000E03F2246D3E900012B4602F042FD6A
:10308000DDE90467DDF828800C9ACDE916010A9C79
:1030900090443946304602F0CFFF054602F0CCFCA2
:1030A00002460B463046394602F078FB303504F8CC
:1030B000015B444506460F4621D10022874BDDE9DE
:1030C000160102F06DFB02460B463046394602F00F
:1030D000A9FF00287DD1DDE9162300207F4902F0F9
:1030E0005DFB02460B463046394602F07DFF68B173
:1030F000A04618F8013C013C302BF9D0C2E2002276
:10310000774B02F0FFFC06460F46C2E7DDE91201ED
:10311000CDE90401199B002B7CDBB9F10E0F79DCA2
:10312000704B259F03EBC903002FD3E9004514DA48
:10313000079F002F11DC40F07681204629460022AF
:10314000694B02F0DFFCDDE9042302F061FF079D1B
:103150002C46002840F0698171E1DDF82880DDE926
:10316000046722462B463046394602F0F5FD02F050
:1031700063FF049002F060FC22462B4602F0C2FC82
:1031800002460B463046394602F008FB049F0246D1
:1031900007F130060A9F08F8016BC7EB0806079F86
:1031A0000B46BE4229D102F0FBFA22462B460646C8
:1031B0000F4602F037FF70B93046394622462B469B
:1031C00002F008FF002800F05F82049FFB0702D492
:1031D0005AE2DDF840904346984618F8012C013B2E
:1031E000392A06D10A9F9F42F6D1302209F10109FE
:1031F0003A701A7801321A7046E20022384B02F017
:1032000081FC0022002306460F4602F0E3FE002860
:10321000A7D039E20F9F002F30D0249F012F0ADC66
:10322000159F17B103F2334302E0189BC3F1360335
:103230000E9D089E16E0079F7D1E0E9FAF4201DB8C
:103240007D1B06E00E9F0E95EB1B119F00251F4472
:103250001197079F002F03DA08980023C61B01E08F
:10326000089E079B089F50461F440897099F01210D
:103270001F44099700F0B2FB044602E00E9D089E31
:103280000F9C6EB1099F002F0ADD3B46089FB34299
:10329000A8BF3346FF1A0897099FF61AFF1A099725
:1032A0000E9F002F28DD0F9F07B3002D10DD214654
:1032B0002A46504600F034FC04465A462146504601
:1032C00000F095FB59460746504600F0A7FABB466A
:1032D0000E9F7A1B10D0504659460AE00000E03F8E
:1032E00000002440106B0000000014400E9A50466D
:1032F000594600F015FC83465046012100F06EFB54
:10330000119F0546002F05DD294650463A4600F03C
:1033100007FC0546249F012F12DC049880B905990B
:10332000C1F3130373B921F000473F0D3F0557B1B7
:10333000089F01370897099F01370997012702E085
:10334000002700E0049F119840B12B6905EB83032F
:10335000186900F0F6FAC0F1200000E00120099B96
:10336000034413F01F030FD0C3F12002042A09DD28
:103370000899099AC3F11C0319441A4408911E4480
:10338000099209E008D01346089809991C3318449B
:10339000194408901E440991089A002A04DD5946F0
:1033A000504600F00BFC8346099B002B05DD2946A7
:1033B00050461A4600F002FC05461498E0B1584603
:1033C000294600F04EFC002816DA594650460A22DB
:1033D000002300F03AFA0F9909F1FF39834649B109
:1033E00021460A225046002300F02FFA0B9A044689
:1033F000079201E00B9B07930798002829DC24998A
:10340000022926DD88B929460522079B504600F08F
:103410001CFA05462946584600F023FC00280EDC1D
:1034200003E00C9D00E000252C46259FDDF8288058
:103430006FEA07090AE00C9DDDF840902C460A9FD0
:10344000312307F101083B7009F1010927460024E7
:1034500007E10F98002800F0BB80002E05DD214613
:103460005046324600F0AAFB04469FB161685046C0
:1034700000F09FF922690646023204F10C01920025
:103480000C30FEF779F950463146012200F096FBE8
:10349000074600E027460A9E29465846FFF7BAFA33
:1034A000214600F1300C80465846CDF808C000F0A7
:1034B000D8FB3A4608902946504600F0EFFBC36817
:1034C0000246DDF808C04BB911465846039200F099
:1034D000C8FB039A0346DDF808C000E0012350460C
:1034E00011460393CDF808C000F098F9039BDDF86E
:1034F00008C063B9249951B9049800F0010232B9A7
:10350000BCF1390F35D0089B002B24DC25E008984E
:10351000002802DA002B08DC1FE023D1249909BB24
:10352000049800F00102EAB9F4E759460122504636
:10353000CDF808C000F042FB2946834600F091FB1D
:103540000028DDF808C003DC07D11CF0010F04D00F
:10355000BCF1390F0DD008F1310C06F1010886F8E5
:1035600000C07EE0002B06F1010809DDBCF1390F37
:1035700003D13923337001365BE00CF1010368E0BD
:103580000A99079AC1EB08034646934206F801CC14
:103590003CD059460A220023504600F056F9BC425E
:1035A0008346214650464FF00A024FF0000304D1F3
:1035B00000F04BF9044607466EE700F046F939463D
:1035C00004460A225046002300F03FF9074663E70D
:1035D0000F9E58462946FFF71DFA0A9F00F1300C4E
:1035E00007F806C0079F0136BE4207DB0A9E012F7F
:1035F000ACBFF61901362746002407E0594650466D
:103600000A22002300F021F98346E2E7594601220D
:103610005046CDF808C000F0D1FA2946834600F0A4
:1036200020FB0028DDF808C003DC14D11CF0010FDA
:1036300011D016F8013CB046392B06F1FF3607D100
:103640000A98B042F5D1312309F10109037008E06D
:103650000133337005E0B04618F8013C013E302BD1
:10366000F9D05046294600F0D9F86FB12CB1BC42D0
:1036700003D05046214600F0D1F85046394600F0BC
:10368000CDF801E0DDF840905046594600F0C6F80C
:103690000023269F88F8003009F101033B60289F32
:1036A00027B1C7F8008001E0024800E00A981BB08B
:1036B000BDE8F08FD1690000004870473801001064
:1036C00038B5074C054600202060084611461A46CA
:1036D000FCF70AFF431C02D1236803B12B6038BDFD
:1036E000B4030010F0B58B8991B09E0705460C46D7
:1036F00025D4B1F90E10002908DAA389002713F0A8
:10370000800F14BF40264FF480660DE001AA01F03F
:10371000F9FC0028F1DB029F4FF4806607F4704744
:10372000B7F500514F424F4128463146FEF77AF82F
:1037300060B9A3899A051DD443F00203A38104F163
:103740004703236023610123636113E00A4BAB62EB
:10375000A389206043F08003A381206166614FB19B
:103760002846B4F90E1001F0FBFF18B1A38943F00D
:103770000103A38111B0F0BD25150000814270B591
:1037800001D300230EE08C18A042FAD2851813460C
:1037900013F1FF3305D351426618F65C2944CE5429
:1037A000F6E770BD934203D0CC5CC4540133F9E713
:1037B00070BD70B5456A04460E463DB91020FDF750
:1037C000C5FF6062456085600560C560656AEB683D
:1037D00043B1636ADA6852F8260078B1016842F8AA
:1037E000261017E020460421212200F0E0FB636A46
:1037F000E860DB68002BECD1002070BD012101FAEC
:1038000006F56A1D2046920000F0D1FB0028F3D097
:103810004660856000220261C26070BD70B5446A76
:1038200006460D463CB91020FDF790FF70624460DB
:1038300084600460C4603DB1736A6A68DB6853F8F1
:103840002210296043F8225070BD2DE9F0410C464A
:103850001E460D69074614310023086801331FFA1C
:1038600080FC000C02FB0C6C504300EB1C401FFA68
:103870008CFC060CAB420CEB004041F8040BECDB7B
:10388000D6B1A3689D4212DB616838460131FFF76B
:1038900090FF226904F10C010232804692000C3044
:1038A000FDF76AFF21463846FFF7B8FF444604EBB0
:1038B000850301355E6125612046BDE8F0812DE973
:1038C000F8431446984603F1080209230D4692FB7B
:1038D000F3F20646012300219A4202DD5B0001312A
:1038E000FAE73046FFF765FF089B092C43614FF06C
:1038F00001030146036111DD05F109094F46254425
:1039000017F8013B30460A22303BFFF79EFFAF42DB
:103910000146F5D109EB0407083F02E005F10A076B
:1039200009242546454509DA3B1B5B5D30460A22E2
:10393000303BFFF78AFF01350146F3E70846BDE853
:10394000F883030C1B0413B90004102300E00023C8
:1039500010F07F4F04BF0002083310F0704F04BF17
:103960000001043310F0404F04BF800002330028F0
:1039700003DB420003D5581C7047184670472020CF
:103980007047036813F007020BD0D90722D49A07B7
:1039900003D55B080360012070479B080360022089
:1039A000704799B209B91B0C102213F0FF0F04BF26
:1039B0001B0A0832190704BF1B090432990704BF08
:1039C0009B080232D90702D45B0805D0013203609C
:1039D00010467047002070472020704710B50C46F5
:1039E0000121FFF7E6FE01224461026110BD2DE9CD
:1039F000F04F164633690A6985B09A420D4601DADE
:103A000035460E46D5F810803769AB68696808EB13
:103A100007049C42C8BF0131FFF7CBFE00F114033D
:103A200003EB840101911A46DDF804A0524503D24C
:103A3000002142F8041BF7E705F1140106F1140216
:103A400001EB880802EB8707CDF808800397039EF7
:103A50001546B24256D2B5F800C00432BCF1000F90
:103A600025D00F461D46002657F8049BD5F8008048
:103A70001FFA89FB1FFA88FA0CFB0BAA4FEA1949B7
:103A80004FEA18480CFB0988B24408EB1A481FFAA1
:103A90008AFA4AEA084A4FEA1846DDF80880AB4637
:103AA000B8454BF804AB01D95D46DDE76E6032F8EE
:103AB000028CB8F1000F23D01E680F461D464FF050
:103AC0000009B7F800A0B5F802C0B6B208FB0ACCEE
:103AD000E14446EA0946AC464CF8046B57F8046BDF
:103AE000B5F804A0360C08FB06A6DDF808A006EB26
:103AF000194657454FEA164901D26546E1E76E601F
:103B00000433A4E7019B002C03DC046105B0BDE88D
:103B1000F08F53F8042D002AF7D1013CF3E70000A1
:103B200012F003032DE9F04105460E46174607D073
:103B3000214A013B52F823200023FFF786FE064668
:103B4000BF1035D06C6A3CB91020FDF7FFFD6862EC
:103B5000446084600460C460D5F82480D8F80840CC
:103B60007CB9284640F27121FFF738FF0023C8F8DE
:103B700008000446036004E07F1019D0206870B18B
:103B80000446FB07F8D5314622462846FFF72FFFAB
:103B9000314680462846FFF741FE4646ECE7284678
:103BA00021462246FFF723FF002320600360E7E75A
:103BB0003046BDE8F08100BF006C00002DE9F04701
:103BC0000C4623694FEA621A0AEB03094968A368A5
:103BD0008046154609F101079F4202DD01315B0075
:103BE000FAE74046FFF7E5FD0023064600F1140220
:103BF000534504DA002142F823100133F8E7206925
:103C00002AEAEA7104F1140315F01F0C02EB81019A
:103C100003EB800E16D0CCF1200A002518680A4666
:103C200000FA0CF0054342F8045B53F8045B73455B
:103C300025FA0AF501D21146F0E74D6045B109F1C8
:103C4000020705E053F8042B734541F8042BF9D320
:103C5000013F404637612146FFF7E0FD3046BDE8B1
:103C6000F08702690B6910B5D21A13D19C00143089
:103C700001F114020319224453F8044D52F8041DB3
:103C80008C4203D008D24FF0FF3010BD9842F3D3DE
:103C9000002010BD104610BD012010BD2DE9F047D9
:103CA00006460C46084611461546FFF7DAFF071E82
:103CB00008D130463946FFF77CFD01230361476197
:103CC000BDE8F08701DB002703E0234601272C46EF
:103CD0001D4661683046FFF76CFD22692B6914347C
:103CE00005F1140606EB830AC76004EB820C00F1B1
:103CF0001403002154F8047B56F8049B1FFA87F83C
:103D00001FFA89F541444FEA1949C5EB0108C9EB8F
:103D1000174707EB28471FFA88F83914B24548EAD5
:103D20000747254643F8047BE4D865450DD255F88E
:103D3000044BA6B20E44240C04EB2644B6B2211464
:103D400046EA044443F8044BEFE753F8041D09B96D
:103D5000013AFAE70261BDE8F08700000F4B0B4023
:103D6000A3F15073002B01DD194609E05B421B15DE
:103D7000132B4FF0000105DC4FF4002242FA03F14F
:103D800000207047322B4FF00102DABFC3F133033A
:103D900002FA03F313461846704700BF0000F07F95
:103DA0002DE9F041066900F1140707EB860656F885
:103DB000044C88462046FFF7C4FDC0F120030A28C2
:103DC000A6F10405C8F8003014DCBD42C0F10B01B7
:103DD00088BF56F8085C24FA01FC98BF002515300E
:103DE00025FA01F184404CF07F5343F4401341EA3B
:103DF000040224E0BD4286BFA6F1080556F8081C5F
:103E00000021B0F10B0615D0B440C0F12B0021FA0F
:103E100000FC44F07F5444F44014BD4244EA0C03D7
:103E20008CBF55F8044C002424FA00F0B14040EA5D
:103E3000010204E044F07F5343F440130A46104665
:103E40001946BDE8F0812DE9F74301211D46DDF853
:103E50002890DDF82C801446FFF7ABFCC5F30A5719
:103E60000646C5F313030FB143F480130193D4B195
:103E700002A840F8084D6846FFF783FD009B48B153
:103E8000019AC0F1200102FA01F1C2400B437361B3
:103E9000019200E07361019B002B0CBF01240224FE
:103EA000B361346107E001A8FFF76BFD019B0124BA
:103EB0007361346120303FB1A7F233470744C9F83A
:103EC0000070C0F135000AE0A0F2324006EB840336
:103ED000C9F800001869FFF734FDC0EB4410C8F8BA
:103EE0000000304603B0BDE8F0832DE9F3410E46F3
:103EF00069468046FFF754FF0D46044601A9304647
:103F0000FFF74EFF009F0B46019902467F1AD8F833
:103F100010003169411A07EB41110029CCBF05EBB4
:103F20000155A3EB01532046294601F015FF02B0CD
:103F3000BDE8F08110B5013902F11403491112698D
:103F4000013100EB810103EB8202934204D253F86A
:103F5000044B40F8044BF8E7884203D2002340F8B2
:103F6000043BF9E710BD00F1140200694B118342D4
:103F700010B50CDC0CDA11F01F0109D052F8230047
:103F800020FA01F404FA01F181420ED100E0034667
:103F900002EB83039342194605D951F8041C043BF4
:103FA0000029F7D001E0002010BD012010BD38B578
:103FB00002FB01F42146FDF735FC054618B100214E
:103FC0002246FDF7E2FB284638BDF8B50646144602
:103FD0000D4621B91146BDE8F840FDF723BC1AB9DA
:103FE000FDF7DCFB2046F8BD01F0CAFBA0420ED273
:103FF00030462146FDF716FC074650B129462246B9
:10400000FDF7BAFB30462946FDF7C8FB01E028461C
:10401000F8BD3846F8BD000038B5074C054600200D
:104020002060084611461A46FCF724FA431C02D1C8
:10403000236803B12B6038BDB403001031F0004396
:1040400010B500D178B10C4AA3F5801494420CD974
:10405000B3F5801F0BD3094A93420AD1D0F1010076
:1040600038BF002010BD022010BD042010BD032069
:1040700010BD002010BD00BFFFFFDF7F0000F07FFC
:10408000004870470000C07F0EB400B54FF40271C5
:104090009CB0ADF814106FF00041049107914FF6F9
:1040A000FF711DABADF81610084953F8042B0290B0
:1040B0000690086802A9019300F038FF029B0022D5
:1040C0001A701CB05DF804EB03B0704730010010AB
:1040D00030B5026811F8015B541C55B15378224683
:1040E000A3F14104192C98BF2033AB42F2D0002039
:1040F00030BD0460012030BD2DE9F0410D469046F1
:10410000FFF72CFE06460F46B8F1000F0FD0C5F39F
:104110000A53C3F16B03002B09DD1C0504F17F5327
:1041200003F54013002201F0EDFCBDE8F0813046BC
:104130003946BDE8F08100002DE9F04F00239FB023
:104140008146049115921A934FF0000A4FF0000B2C
:104150001991199A13780D2B05D8092B14D2002B1D
:1041600000F0B18113E02B2B07D02D2B02D0202B98
:104170000DD109E00126099601E000270997531C9B
:10418000199353782BB99EE101321992E1E7002689
:104190000996199C2378302B5AD16378582B01D07B
:1041A000782B49D1099F1AAB00930197484619A96A
:1041B0009C4A1BAB01F002F810F00706054600F020
:1041C000AD85062E02D1013419947EE11A9A3AB1D6
:1041D0001CA83521FFF7AEFE48461A99FFF71EFBD3
:1041E0001B9A062E21D8DFE806F0040D08171C0DD7
:1041F00004004FF0000BDA4617E0DDF870A0DDF8A0
:1042000074B012E01D9B02F2334223F48013DDF8F8
:1042100070A043EA025B08E0DFF80CB24FF0000A3E
:1042200003E06FF0004B4FF0FF3A2B0740F176852B
:104230004BF0004B00F072BD199B5A1C19925B7831
:10424000302BF9D0002B00F069850123059301E0A4
:1042500000260596199F4FF000080797CDF80C80AF
:104260004446199E3578A5F13003DAB2092A10D8F0
:10427000082CD8BF039F4FF00A02D8BF02FB0737B4
:1042800006F10106D4BF039702FB083801341996E2
:10429000E7E74846FFF710FA07684846FFF70CFAC9
:1042A0000068FDF766FB394602463046FDF769FBBC
:1042B000064628B100232A46194625460A935FE0A0
:1042C0004846199DFFF7F8F90068FDF752FB2B18D7
:1042D00019932A5C002C45D12346302A05D1199A1E
:1042E0000133511C19915278F7E7A2F131010829E5
:1042F00042D8199E1946002307961D46303A03F10D
:10430000010029D001446E1C771B874210DA771E0A
:10431000082F06DC039F4FF00A0C0CFB07F70397EE
:1043200004E0102EDCBF0A2707FB08F80136EBE794
:10433000002BACBFEB182B1C082B03F1010505DC8F
:10434000039E0A2303FB0626039604E0102DDCBF20
:104350000A2303FB08280020199B5A1C19925A783B
:10436000034602E0254633463146A2F130000928D3
:10437000C4D901270A9703E00025012029460A90A5
:1043800022F02006452E53D125B91BB9059E002EDB
:1043900000F09980199F7A1C19927A7804972B2A39
:1043A00004D02D2A05D000260F9608E000200F909B
:1043B00001E001270F97049EB21C1992B278A2F176
:1043C0003007092F32D8302A04D1199A571C19976F
:1043D0005278F8E7A2F13107082F29D81998A2F1ED
:1043E00030070690199A561C199652780E96A2F12B
:1043F0003006092E05D84FF00A0C0CFB0727303F7A
:10440000F0E70E98069EC6EB000CBCF1080F44F6D0
:104410001F6C02DC6745B8BFBC460F9F57B1CCF19B
:10442000000C07E00C6C00000000F07F049E199661
:104430004FF0000C002D4CD1002B40F06F84059FF5
:10444000002F40F06B840A9800283CD14E2A1BD0E4
:1044500002DC492A05D036E0692A02D06E2A13D040
:1044600031E019A8AC49FFF733FE60B3199B19A8D6
:10447000013BAA491993FFF72BFE10B9199B013391
:104480001993DFF8B4B21AE019A8A549FFF720FE86
:10449000C8B1199B1B78282B0FD119A8A1491CAAB8
:1044A00001F0CEF8052808D11D9BDDF870A043F07F
:1044B000FF4B4BF4E00B00F031BCDFF880B24FF063
:1044C000000A00F02BBC049B19930026099600F00B
:1044D00025BCC1EB0C010398102DB4BFAC464FF0C6
:1044E000100CCDF808C0069101F096FADDF808C06E
:1044F000002C08BF2C46BCF1090F82468B4615DD07
:10450000894B03EBCC0353E9122301F0FBFA064677
:1045100040460F4601F080FA02460B4630463946C7
:1045200001F03EF9DDF808C082468B460F2D37DCDE
:10453000069F002F00F0F28323DD162F07DC7A4957
:10454000524601EBC701D1E900015B4614E0069E2B
:10455000C5F125039E4223DC734CC5F10F0504EB26
:10456000C503751BD3E9000152465B4604EBC50445
:1045700001F0C8FAD4E9002301F0C4FA82468B4660
:10458000CCE3069F16370BDBDDF818C0664F5046AC
:10459000A7EBCC075946D7E9002301F0DDFBEDE797
:1045A000069ECCEB0508B044B8F1000F61DD18F0B1
:1045B0000F030AD05C4A02EBC303D3E90001524661
:1045C0005B4601F09FFA82468B4638F00F0800F0F8
:1045D000C880B8F59A7F13DD4FF00008CDF80C8045
:1045E000CDF81C80CDF81480079F2223C9F8003035
:1045F000DFF844B14FF0000A002F40F07B838DE3D9
:104600004FEA2818504659460026B8F1010F0DDD33
:1046100018F0010F06D0454B03EBC603D3E9002386
:1046200001F070FA01364FEA6808EEE73F4B824628
:10463000A1F1547B03EBC60652465B46D6E9000166
:1046400001F060FA21F000438B461B0D38491B0531
:104650008B428246C0D8A1F580118B4206D9002634
:10466000DFF8DCB04FF0FF3A04967CE00BF1547BAE
:1046700077E076D0C8F1000818F00F030AD02A4A74
:10468000504602EBC3035946D3E9002301F064FB13
:1046900082468B465FEA281863D0B8F11F0F08DD09
:1046A0004FF00008CDF80C80CDF81C80CDF81480B8
:1046B0001EE118F0100F14BF6A26002604961D4E46
:1046C00050465946B8F1000F0ADD18F0010F03D02B
:1046D000D6E9002301F016FA4FEA68080836F1E738
:1046E000049F82468B469FB3C1F30A53C3F16B0309
:1046F000002B2DDD1F2B25DD342B4FF0000A02DDB2
:104700004FF05C7B24E0203B4FF0FF3101FA03F3D4
:1047100003EA0B0B1CE000BFC6690000FE6A000044
:10472000CE690000486C0000106B0000D86B0000E0
:104730000000A07C206C00000000F07F0000F8FF6B
:10474000FFFFEF7F4FF0FF3202FA03F303EA000AA4
:10475000504659460022002301F03CFC00289FD11E
:1047600001E000270497039E4846009607992246D9
:104770002B46FFF7A4F8079000283FF42DAF069FC3
:104780004FF000087B42002FA8BF00230E93CDF806
:104790000C80079E48467168FFF70BF805900028CB
:1047A0003FF422AF326906F10C01023292000C3064
:1047B000FCF7E2FF1BAB00931CAB0193484652464B
:1047C0005B46CDE90AABFFF73EFB1A9000283FF4A9
:1047D0000BAF48460121FFF701F9039000283FF491
:1047E00003AF1B9BDDF818C0002B2CEAEC77C0F25E
:1047F0008B800E9C3A461C44049E1C9D9B1B5919A1
:104800006FF47F739942C5F1360580F287805B1A99
:104810001F2BC3EB05054FF0010078DC9840002307
:1048200014900F93049866191544A642B4BF3346FA
:1048300023460544AB42A8BF2B46002B02DDF61AE7
:10484000ED1AE41A0E9900296FD1002E00F387802B
:10485000002F40F08E80002D00F39580002C00F397
:104860009C8048461A99059AFFF718FA8046002856
:104870003FF4BAAEC6680023C36003990896FFF7F9
:10488000F0F9002880F29880002E40F02082BAF1E2
:10489000000F40F01C82CBF31303002B40F0178273
:1048A0002BF000431B0D1B05B3F1D66F40F20F82B6
:1048B000D8F81430002B7AD0414601224846FFF741
:1048C0007DF903998046FFF7CCF9002840F3FF817A
:1048D0002BF00043049F1B0D1B05002F00F09C8054
:1048E000B3F1D66F00F29880B3F15C7F00F2F181F2
:1048F000079E22234FF0000A4FF0000BC9F800304A
:10490000002E40F0F78109E2FA1A0E9C74E7844EFB
:104910001490761A00FA06F60F9683E700264FF0F9
:10492000010C0F96CDF850C07CE7484603990E9ACB
:10493000FFF7F6F8039000283FF456AE4846039977
:104940001A9AFFF754F8034600283FF44DAE484644
:104950001A990293FEF762FF029B1A9375E7484685
:104960001A993246FFF72AF91A9000287FF470AF9F
:104970003AE6484605993A46FFF7D2F805900028EE
:104980007FF469AF30E6484605992A46FFF716F9E5
:10499000059000287FF462AF26E648460399224638
:1049A000FFF70CF9039000287FF45BAF1CE6D8F802
:1049B0001030012B80DC8AE163D1089FCBF3130315
:1049C0002FB358495A468B422FD1049E51466EB19F
:1049D000554B0BEA0303B3F1D46F07D81B0DC3F19A
:1049E0006B034FF0FF3000FA03F301E04FF0FF33A9
:1049F00099421AD14D4B9A4202D101313FF4F4ADA4
:104A0000494B4FF0000A134003F5801B5FE163B987
:104A1000BAF1000F09D15BE7A3F580136FEA135BCE
:104A20006FEA0B5B4FF0FF3A51E10F9B13B113EAB2
:104A30000B0F02E0149E16EA0A0F00F04881089F4F
:104A400050465946049A57B1FFF756FB02460B46AB
:104A5000DDE90A0100F0A4FE82468B4637E1FFF74C
:104A60004BFB02460B46DDE90A0100F097FE0022EF
:104A7000002382468B4601F0ADFA00287FF438AF60
:104A800025E140460399FFF730FA00224FF08043BA
:104A900004460D4601F0B2FA002832D0089E26B135
:104AA000234F002634463D464CE0BAF1000F03D1B7
:104AB000CBF313033BB90BE0BAF1010F03D1BBF108
:104AC000000F3FF415AF00261A4F0024184D39E0AF
:104AD000204629460022164B01F086FA40B92046AE
:104AE00029460022144B01F00DF804460D4601E062
:104AF000114D002405F1004716941797DDE916675C
:104B000020E02046294600220B4B00F0FBFF089EC8
:104B100004460D4696B901F10047109011970FE039
:104B2000E3FBFFFFFFFF0F000000F07FFFFFEF7FC1
:104B30000000F03F0000F0BF0000E03FCDE910456D
:104B4000DDE910672BF0004C4FEA1C5C844B4FEA08
:104B50000C5C9C4531D1DDE90A01ABF1547BCDE918
:104B60000C0150465946CDF808C0FFF7F7F8024649
:104B70000B463046394600F0C5FF02460B4650460C
:104B8000594600F00DFE21F000431B0D754A1B0530
:104B900093428246DDF808C00CD9734B0D999942B7
:104BA00003D10C9A01323FF41FADDFF8BCB14FF0D6
:104BB000FF3A7BE001F1547B42E0049B53B3BCF12C
:104BC000D46F27D85EA3D3E9002320462946CDF829
:104BD00008C001F013FADDF808C0B8B12946204634
:104BE00001F052FA002808BF012000F015FF089ECE
:104BF00004460D46DDF808C026B901F100471290C1
:104C0000139701E0CDE91245DDE9126707F1D6639C
:104C1000CCEB0307DDE90A01CDF808C0FFF79EF8E9
:104C200002460B463046394600F06CFF02460B4602
:104C3000DDE90A0100F0B4FDDDF808C082468B46CC
:104C4000049F002F32D12BF000431B0D1B059C4508
:104C50002CD12946204601F0EFF900F0EDFE024686
:104C60000B462046294600F099FD089F04460D4654
:104C70002FB9BAF1000F02D1CBF3130686B120464B
:104C8000294631A3D3E9002301F0AEF9002831D140
:104C9000204629462EA3D3E9002301F0C3F904E0FE
:104CA0002DA3D3E9002301F09FF918BB48461A99B8
:104CB000FEF7B4FD48460599FEF7B0FD4846039956
:104CC000FEF7ACFD48464146FEF7A8FD61E5049EAF
:104CD00086B1264F00200C900D9750465946DDE9CD
:104CE0000C2300F00FFF82468B4619B910B922231E
:104CF000C9F8003048461A99FEF790FD48460599D4
:104D0000FEF78CFD48460399FEF788FD4846079953
:104D1000FEF784FD48464146FEF780FD159E0EB124
:104D2000199B3360099F1FB150460BF1004101E010
:104D3000504659461FB0BDE8F08F00BFAFF300806A
:104D40000000C0FFFFFFDF419535A094FFFFDF3F6C
:104D500035E5AF350000E03F9535A094FFFFCF3F2C
:104D60000000E07FFFFF9F7CFFFFEF7F00005039D6
:104D700084463F482DE9F04FD0F800800E46344677
:104D800014F8015B08EB0500407800F0080000F023
:104D9000FF0708B12646F2E72D2D03D1B41C757824
:104DA000012703E02B2D04BF7578B41C33F01000ED
:104DB0000DD1302D08D1207800F0DF00582851D1D6
:104DC00065781023023402E0002B08BF0A23002F6D
:104DD0000CBF6FF0004A4FF0004ABAFBF3F903FB37
:104DE00019AA0026304608EB050B9BF801B01BF012
:104DF000040F01D0303D0BE01BF0030B1BD0BBF1C7
:104E0000010F14BF4FF0570B4FF0370BCBEB0505DD
:104E10009D4210DAB6F1FF3F0AD0484506D801D1CD
:104E2000554503DC03FB0050012601E04FF0FF363F
:104E300014F8015BD7E7731C0CD1002F4FF022034D
:104E40000CBF6FF000404FF00040CCF800302AB9A2
:104E5000BDE8F08F07B1404242B106B1611E11605A
:104E6000BDE8F08F002B08BF0823B0E7BDE8F08F46
:104E7000340100102DE9F0478D688146AB420C46A5
:104E800092461F4643D38B8913F4906F3DD026681A
:104E900009690222C1EB0608666906EB460696FB25
:104EA000F2F608F101023A44964238BF16465B0515
:104EB0000FD53146FCF7B6FC054698B1216942464C
:104EC000FCF75AFCA38923F4906343F08003A38189
:104ED00013E03246FFF779F8054670B94846216974
:104EE000FCF75CFC0C23C9F80030A3894FF0FF30BD
:104EF00043F04003A381BDE8F08725616661454426
:104F0000C8EB06062560A6603D46AF4200D23D468E
:104F10002A4620685146FEF731FCA36800205B1B3F
:104F2000A36023681D442560BDE8F0872DE9F043A8
:104F30009DB003938B8907461C060D4616460CD57B
:104F40000B6953B94021FCF76DFC2860286110B94A
:104F50000C233B60C7E040236B61002309932023AF
:104F60008DF8293030238DF82A3033461C4613F84B
:104F7000012B1AB9B4EB06090FD002E0252AF5D1AE
:104F8000F8E73846294632464B46FFF773FF0130B3
:104F900000F0A480099B4B4409932378002B00F078
:104FA0009D8000234FF0FF320493079305920693F0
:104FB0008DF853301A9304F101094D4E4C4630469A
:104FC00021780522FCF7CAFB09F10109049B28B1ED
:104FD000861B0120B04003430493EEE7D90644BF8B
:104FE00020228DF853201A0744BF2B228DF853201E
:104FF00022782A2A02D0079B21460EE0039A111D2F
:1050000012680391002A01DB079204E0524243F048
:1050100002030792049301340AE00C46227801311E
:10502000303A092A03D80A2000FB0323F5E7079347
:1050300023782E2B19D163782A2B09D1039B0234B4
:105040001A1D1B680392002BB8BF4FF0FF330BE013
:10505000611C00230C4622780131303A092A03D81A
:105060000A2000FB0323F5E70593224E2178304602
:105070000322FCF773FB30B1861B4020B040049B39
:1050800001340343049321781B480622661C8DF8E3
:105090002810FCF763FB88B1184B33B9039B073327
:1050A00023F007030833039314E003AB009338465F
:1050B00004A92A46124BFCF749FE07E003AB009314
:1050C000384604A92A460E4BFDF7C0F8B0F1FF3F61
:1050D000804603D0099B4344099346E7AB895B06AE
:1050E00001D4099801E04FF0FF301DB0BDE8F08316
:1050F000B0690000B6690000BA6900004D1D0000EB
:10510000754E000038B5074C002305460846114689
:105110002360FBF7FDF9431C02D1236803B12B6028
:1051200038BD00BFB4030010F0B506694B11B3429F
:1051300000F1140226DA11F01F0102EB860602EBE1
:10514000830401D1134616E052F82350C1F1200C1C
:10515000CD4004341346B44209D2276807FA0CF74D
:105160003D4343F8045B54F8045BCD40F3E71D6016
:105170004DB1043307E0B44205D254F8041B43F8A0
:10518000041BF8E713469B1A9B10036103B94361A4
:10519000F0BDA0F13003092B01D820380AE0A0F1BE
:1051A0006103052B01D8473804E0A0F14103052B2A
:1051B00002D82738C0B27047002070472DE9F04F61
:1051C00089B00591069390460390FEF775FA006842
:1051D0004FF0000B0490FCF7CCFB049B05990344B3
:1051E00013F8013C029007930B6802331F4613F833
:1051F000010B302802D10BF1010BF7E7FFF7C9FFD4
:105200000646F8B938460499029AFCF7BAFB00281A
:1052100039D1029B029DF85C3D44FFF7BAFF00289C
:1052200033D02B4618781F46302803F10103F9D0FC
:10523000FFF7AFFFD0F1010438BF00242E464FF036
:10524000010B01E000242646B9464D46287809F1B5
:105250000109FFF79EFF0028F7D128460499029A1A
:10526000FCF78FFB58B95EB9029E2E44B1464D46FD
:10527000287809F10109FFF78CFF0028F7D136B132
:10528000761BB60003E03D4600E0064601242B787D
:10529000502B01D0702B34D16B782B2B05D02D2BBC
:1052A00005D005F10109002104E0002100E0012101
:1052B00005F1020999F800000191FFF76AFF431E0A
:1052C000DBB2182B01991CD8A0F1100A09F10103D7
:1052D000994699F80000013301910093FFF759FFB7
:1052E000421ED2B2182A0199009B05D80A2202FB5D
:1052F0000A0AAAF1100AEBE709B1CAF1000A5644FA
:1053000000E0A9460599C1F800902CB1BBF1000F4F
:105310000CBF062000207DE1EB1B013B2146072B43
:1053200002DD01315B10FAE70398FEF742FA4FF015
:10533000000900F1140A04465346CB46BD4233D956
:105340006A1E0592079915F8012C8A4209D0BBF113
:10535000200F17D1C3F800904FF000090433CB465B
:1053600010E0029A0599C2F1010C8C44BC45EED3C1
:10537000604604998DE80810FCF703FB9DE80810CF
:1053800080B1E4E715F8010C0093FFF702FF00F08D
:105390000F0000FA0BF0DDF814C0009B49EA000989
:1053A0000BF1040B6546C9E743F8049BCAEB030302
:1053B0009B10236148465F01FEF7C3FAD8F80050FE
:1053C000381AA84226DD471B39462046FEF7CBFD9A
:1053D000C8B17B1E03F01F014FF0010909FA01F16A
:1053E0005A115AF8222011420ED04B4502DC4FF0E0
:1053F000020909E02046B91EFEF7B5FD0028F6D0E7
:105400004FF0030900E0814620463946FFF78CFE45
:105410003E440CE009DA2F1A214603983A46FEF77B
:10542000CDFBF61B044600F1140A4FF00009D8F832
:1054300008309E4208DD03982146FEF7EFF9129AE4
:1054400000231360A320E5E0D8F804309E4254DA2C
:105450009E1BAE422EDBD8F80C30022B1AD0032B49
:105460001CD0012B1DD1AE421BD1012D0BDCD8F875
:105470000430069962200B6001232361CAF80030D2
:10548000129B1C60C6E02046691EFEF76CFD0028DA
:10549000EDD106E0139B002BE9D002E0139B002B1B
:1054A000E5D103982146FEF7B9F9129900230B6064
:1054B0005020AFE0771EB9F1000F07D1002F07DDB4
:1054C00020463946FEF74FFD814601E04FF00109C5
:1054D0007B11012207F01F0702FA07F75AF8233061
:1054E00031461F42204618BF49F00209AD1BFFF7A5
:1054F0001BFE0227D8F8046000E00127B9F1000F75
:1055000000F08380D8F80C30022B0ED0032B10D083
:10551000012B78D119F0020F75D0DAF8003049EA82
:10552000030919F0010F07D16DE0139BC3F10103CB
:105530001393139B002B66D0D4F8109004F114033E
:105540004FEA890A03EB0A01184653F8042BB2F11B
:10555000FF3F02D00132026021E000228B4243F87B
:10556000042CF1D3A368994512DB616803980131DB
:10557000FEF71FF9226904F10C0102328346920002
:105580000C30FCF7F9F821460398FEF747F95C4622
:1055900023695A1C226104EB830301225A61022F02
:1055A00004F1140311D1D8F80020013A954227D113
:1055B0006A11012105F01F0501FA05F553F82230A3
:1055C0001D420CBF02270F461AE022694A450ADD38
:1055D00020460121FFF7A8FDD8F8083001369E4289
:1055E0003FF729AF0BE015F01F0508D0534453F8DF
:1055F000040CFEF7A6F9C5F12005A842E8DB012757
:1056000047F0200701E047F01007129B38461C6066
:10561000069B1E6009B0BDE8F08FC2F1080292003F
:1056200070B5C2F12004056850F8043F03FA04F68F
:10563000D3403543884240F8045C0360F3D370BD27
:105640002DE9F04F0B6885B05E11039013F01F0336
:1056500002EB86060293039B18BF0436A6F10408EA
:105660001546D3F80090002246F8042C47464446DD
:105670009246934699F8011000293AD008468DE8E1
:105680000600FFF786FD9DE80600D8B9202912D84C
:10569000DA452BDABC4205D2072A03DC204639461C
:1056A000FFF7BBFFAC4220D9271F002244F8042C8F
:1056B000DA463C461AE029294CD1039B09F1020144
:1056C000196016E00132082A0BF1010B06DDAC422D
:1056D0000CD9002244F8042C043C0122216800F07B
:1056E0000F0040EA0111216000E0082209F10109E0
:1056F000C0E7BBF1000F2DD0BC4205D2072A03DC66
:1057000020463946FFF789FFAC420CD92B4654F8A6
:10571000042B444543F8042BF9D9002243F8042B09
:105720004345FAD90DE0029B5BB1C3F120094FF06C
:10573000FF3323FA09F956F8043C03EA090346F853
:10574000043C56F8043C043E33B9B542F9D1012378
:105750002B6001E0042000E0052005B0BDE8F08FDB
:1057600038B5064C0023054608462360FAF7A8FE24
:10577000431C02D1236803B12B6038BDB403001071
:1057800051F8040C002802DA04390B581844043884
:105790007047000081F0004102E000BF83F0004349
:1057A00030B54FEA41044FEA430594EA050F08BFBC
:1057B00090EA020F1FBF54EA000C55EA020C7FEA80
:1057C000645C7FEA655C00F0E2804FEA5454D4EBFD
:1057D0005555B8BF6D420CDD2C4480EA020281EAC7
:1057E000030382EA000083EA010180EA020281EAFF
:1057F0000303362D88BF30BD11F0004F4FEA013151
:105800004FF4801C4CEA113102D0404261EB41015F
:1058100013F0004F4FEA03334CEA133302D05242E5
:1058200063EB430394EA050F00F0A780A4F10104A1
:10583000D5F1200E0DDB02FA0EFC22FA05F28018DB
:1058400041F1000103FA0EF2801843FA05F35941C1
:105850000EE0A5F120050EF1200E012A03FA0EFC40
:1058600028BF4CF0020C43FA05F3C01851EBE3716A
:1058700001F0004507D54FF0000EDCF1000C7EEB87
:1058800000006EEB0101B1F5801F1BD3B1F5001FC5
:105890000CD349085FEA30004FEA3C0C04F10104E4
:1058A0004FEA445212F5800F80F09A80BCF1004F0D
:1058B00008BF5FEA500C50F1000041EB045141EA8F
:1058C000050130BD5FEA4C0C404141EB010111F490
:1058D000801FA4F10104E9D191F0000F04BF01463B
:1058E0000020B1FA81F308BF2033A3F10B03B3F119
:1058F00020020CDA0C3208DD02F1140CC2F10C02A9
:1059000001FA0CF021FA02F10CE002F11402D8BF06
:10591000C2F1200C01FA02F120FA0CFCDCBF41EAD2
:105920000C019040E41AA2BF01EB0451294330BDA1
:105930006FEA04041F3C1CDA0C340EDC04F114047E
:10594000C4F1200220FA04F001FA02F340EA030055
:1059500021FA04F345EA030130BDC4F10C04C4F19B
:10596000200220FA02F001FA04F340EA030029467B
:1059700030BD21FA04F0294630BD94F0000F83F4C5
:10598000801306BF81F480110134013D4EE77FEAA8
:10599000645C18BF7FEA655C29D094EA050F08BFF4
:1059A00090EA020F05D054EA000C04BF19461046D5
:1059B00030BD91EA030F1EBF0021002030BD5FEA19
:1059C000545C05D14000494128BF41F0004130BD41
:1059D00014F580043CBF01F5801130BD01F0004595
:1059E00045F0FE4141F470014FF0000030BD7FEA08
:1059F000645C1ABF194610467FEA655C1CBF0B4603
:105A0000024650EA013406BF52EA033591EA030F19
:105A100041F4002130BD00BF90F0000F04BF002111
:105A2000704730B54FF4806404F132044FF0000544
:105A30004FF0000150E700BF90F0000F04BF0021BD
:105A4000704730B54FF4806404F1320410F0004523
:105A500048BF40424FF000013EE700BF42004FEA1E
:105A6000E2014FEA31014FEA02701FBF12F07F439B
:105A700093F07F4F81F06051704792F0000F14BF98
:105A800093F07F4F704730B54FF4607401F00045DC
:105A900021F0004120E700BF50EA010208BF704733
:105AA00030B54FF000050AE050EA010208BF704728
:105AB00030B511F0004502D5404261EB41014FF491
:105AC000806404F132045FEA915C3FF4DCAE4FF095
:105AD00003025FEADC0C18BF03325FEADC0C18BF7C
